:02000002D0002C
:1040000000400D005C8F0D00000006000C00050153
:084010000401BD0B00000000DB
:04401800F8840D001B
:1040200009480A49884208B505D0094A824202D0A7
:10403000121A04F07DF90748074A0021121A04F009
:1040400085F9014808BD00BFF0E40320CC8E0D00C7
:1040500058E5032058E50320F0E7032070B5074E2C
:10406000074C02F04FFBA41BA4080025A54200D179
:1040700070BD56F8043B98470135F7E7908E0D0068
:10408000B48E0D0000F0AABC08B500F0C9FDBDE873
:10409000084002F0F9BA01F043BF01F041BF01F05E
:1040A00047BF01F045BF000008B5034A00210C20BE
:1040B00001F082FEFEE700BFD95A0D000078B0FA89
:1040C00080F040097047012303707047704710B5B6
:1040D0001021044603F0EFF9204610BD37B5044621
:1040E0000846019104F068F96368A268451CE81865
:1040F000904208D8206801992A46184404F018F91B
:1041000060682844606003B030BD000038B5846941
:104110000A4B036005467CB16368013B63605BB991
:10412000236820469B689847A368013BA3601BB99E
:1041300023682046DB689847284638BDDC8B0D0095
:104140000EB403B503AB002153F8042B019302F026
:10415000F2F902B05DF804EB03B0704773B50446A2
:1041600008462279A36832B1A3B90B4902B0BDE871
:10417000704002F0A5B9094A267B094D0949647BC4
:10418000012E18BF2946CDE900140749FFF7D8FFD3
:1041900002B070BD054AEFE71D850D0014850D00C6
:1041A00019850D0015850D0033850D000C850D005A
:1041B0000EB403B503AB012153F8042B019302F0B5
:1041C000BAF902B05DF804EB03B0704798B502F19C
:1041D000080323F0070300AFADEB030D1446684658
:1041E00004F0A6F800230DF8043002F0B3FB0349F5
:1041F0006A46FFF7DDFFBD4698BD00BF50850D0044
:1042000008B501F071FC034B1860BDE8084001F0EF
:104210006FBE00BFD4E7032003682BB1426893420E
:1042200002D2184604F06EB80020704738B5056811
:10423000044645B143689D4205D2284604F0BCF8C7
:10424000013005442560204638BD000038B50446DD
:104250000B46D0E901012568044A091A284401F0F7
:1042600077FE636801300344636038BD53850D00F9
:1042700038B504460B46D0E901012568044A091AFD
:10428000284401F065FE636801300344636038BD73
:1042900056850D0008B500234377006802F044FE00
:1042A000BDE8084001F06ABA2DE9F0438F188FB0DD
:1042B000B942CDE9051706468946904680F0C2808E
:1042C00005A80D88FFF7B2FF03689F4240F2BA804D
:1042D00005980378412B49D1013004F013F80528E3
:1042E00037DDFF2447F276239D4200F0D38041D88A
:1042F00047F261239D4200F0A88047F264239D426B
:104300006BD046F670539D4241D1784D784EDFF820
:10431000F4810598874240F295800378412B4BD178
:10432000013003F0EFFF052839DDFF2405A8FFF772
:104330007DFFDDF814902946484604F033F8014625
:1043400000283DD1204602F0F7FF05A8FFF76EFFD9
:10435000DFE70598013003F0D5FF0028C1DB0598A1
:10436000013003F0CFFF0E30C4B2BBE705A8FFF762
:1043700053FFF9E747F264739D424FD047F27673DB
:104380009D4200F0978047F261739D426FD00023F9
:10439000CDE9013302220092728B19463AE005986A
:1043A000013003F0AFFF0028BFDB0598013003F0B8
:1043B000A9FF0E30C4B2B9E705A8FFF72DFFF9E752
:1043C0003146484603F0EEFF28B14146484603F027
:1043D000E9FF0028B9D10121B4E70AAB45490793A9
:1043E00007A810230025CDE90853FFF777FE07A89B
:1043F0002146FFF72BFF204602F0C8FF014607A821
:10440000FFF736FF089BCDE90155013B0093079B61
:104410002A461421304600F019FB13E005A8FFF7E7
:1044200005FF03689F420DD9A4B20121204602F086
:1044300083FF05A8FFF7F0FE011E18BF01212046EB
:1044400002F08BFF0FB0BDE8F0830AAB079307A81B
:10445000102329490025CDE90853FFF73FFE07A89F
:104460002146FFF7F3FE204602F0A3FFC6E705A8AA
:10447000FFF7DCFE03689F42E4D9A4B20121204685
:1044800002F05AFF05A8FFF7C7FE0146204602F0DA
:10449000A7FFD7E720468DF8284001F071F90346C1
:1044A0000AA823B1154A934201D09847CAE701F000
:1044B00063F9C7E705A8FFF7B9FE059B8DF81C4017
:1044C000A3EB0901A8EB01012046CDE90A310C91CB
:1044D00001F060F903460AA907A823B1084A9342EC
:1044E00001D09847AEE701F048F9ABE75A850D00D7
:1044F0005D850D0065850D0068850D0079570D00FF
:104500007B570D0061850D002DE9F0418CB004AFA3
:10451000044605220068391D02F053F8B8B3052897
:1045200004D000202037BD46BDE8F081B7F8052053
:10453000130A43EA0223B7F80720A7F8053099B217
:10454000130A43EA02231FFA83F8A7F80730002969
:10455000E7D03B7923BB01F00DF90246E060607FB4
:10456000B7F80730C0B9B7F80510012914D1092BE5
:104570000FD0C82B01D0042BD4D101256261204675
:10458000657700F011FBFFF73BFE01F0F7F8012023
:10459000C8E703236377C5E7581F18BF0120C1E7A9
:1045A000B8F5806F03D92046FFF774FEEFE708F1F6
:1045B000080323F007036E46ADEB030D04AD20683E
:1045C0004246294601F0FDFF80454FF000007FD1B3
:1045D000B7F80730E85401F0CDF83B79E060142BD0
:1045E00000F0A68048D80F2B00F0A28007D8022B3D
:1045F00048D0062B51D02046FFF74CFE58E0112B37
:10460000F9D100233B70B7F807302B449D42C7E92E
:1046100003534DD207F10C00D5F80080FFF706FEDA
:10462000FB68B7F807105D1B4D1BC7E905357B68B4
:10463000FD61C3F30F236383644B984500F0BF8093
:1046400000F28C80A3F57F236FF400721344984529
:1046500000F09D8079D8A3F50033063B984500F023
:104660009C8003F50033033398456BD107F11401A7
:10467000384601F082F865E0292B1BD0372B17D084
:104680001D2BB8D1637F43B901236377204600F027
:104690008BFAFFF7B5FD01F071F80023C821B7F8D8
:1046A00005200091CDE901331946204600F0CEF9EE
:1046B00001200DE0A3681BB9402001F031FCA0608F
:1046C000B7F80780A8444545C7E9055802D300203C
:1046D000B54627E729464022A06803F075FEA36887
:1046E000002583F83F5007F11400FFF79FFD036892
:1046F00043451BD2786920B1BB69984214D203F0BC
:1047000005FE85B2206802F00FFC2368A2685A6398
:104710001D870023637701F02DF8A0F59C50083821
:10472000C4E903006061C3E72846EAE75025E9E7EA
:104730007B68B7F80720C3F30F236383294620461D
:10474000FFF7B2FD00236383B2E7214B9845F9D10F
:1047500007F11401384601F010F8F3E71D4B9845B6
:1047600021D003F19F6303F5003303F5807398456F
:104770001FD003F16E4303F5302303F5867398458C
:10478000E0D107F11401384600F0F7FFDAE707F14E
:104790001401384600F0F1FFD4E707F11401384660
:1047A00000F0EBFFCEE707F11401384600F0E5FF1B
:1047B000C8E707F11401384600F0DFFFC2E707F150
:1047C0001401384600F0D9FFBCE700BF76667300DD
:1047D0006462670061636F6E2DE9F04104468CB03E
:1047E0000D46FFF70DFD637F022B00F0A880237FAD
:1047F000628B0133DBB223770AB1012516E0022B6D
:10480000FBD8206802F0AFF9B8B125B9206802F0F2
:1048100031FB002811DD2046FFF776FE0546002813
:10482000F4D1206802F080FB00F0A8FF237F013B59
:10483000237728460CB0BDE8F08100F09BFF0646C8
:10484000206802F090F9677F012F054629D120B931
:1048500066612046FFF71EFDE8E7E3684FF2186245
:10486000F31A934204D92046FFF714FD0025DDE733
:104870004AF6C872934203D82369F31A9342BCD90B
:10488000636941F27072F31A9342B6D90023CDE9FD
:10489000013300931A460621204600F0D7F86661DE
:1048A000ABE7002FA9D16269B21A40B141F270732F
:1048B0009A42A2D9206802F037FB6777D6E741F227
:1048C00088339A4299D9206802F02EFBD4F800C0B0
:1048D000DCF834E0BCF83880BEF1000F0BD02B467A
:1048E00042467146604602F07DFB431E5D425D41DB
:1048F0008DB966619AE7134B06930CF120070FCF31
:1049000007AD0FC53B682B704246734606A960464B
:1049100002F035FAE9E76368059301261846268315
:1049200003F04AFD0022CDE90122059B00903246AA
:104930001D21204600F08AF82369636176E700258F
:1049400077E700BF0C8B0D002DE9F04115468CB0C8
:104950000446043540F6B8300F46984600F008FF8C
:104960000FCD01AE0FC62B683370676000F002FFF9
:10497000A0F59C50083801AFC4E9030060610FCF77
:1049800007AE0FC63B68337007AF0FCF25684FF0F7
:10499000000CC5F834C0A5F8388020350FC5336841
:1049A0002B70664644F24F67206802F0BDFA6677C6
:1049B00000F0E0FE0546637F012B0CD000F0DAFE2C
:1049C000401BB84204D800212046FFF705FFF2E75C
:1049D000637F012BE8D10CB0BDE8F08100B58BB04E
:1049E00001F0B8FF4FF4165101F0A8FF00210E208E
:1049F00002F0A2FCA2230093AC22EA23A72104A880
:104A000001F030FF42F2823304AA0C490C48FFF750
:104A10009BFF04A800F028FF502104A800F031FFFC
:104A200004A9084800F09CFF039001F093FF039A4B
:104A30000549FFF7BDFB0BB05DF804FB6B850D006E
:104A400068E50320C4E503208C850D002DE9F04FB7
:104A500083B000AF044600683D6B88461646994611
:104A6000EB4602F080F800287FD0B8F11D0F04D883
:104A70004C4B23FA08F3DB0702D4637F012B74D17C
:104A800046B9668B36B9238B01339BB2002B71D0AC
:104A90002383268BA8F10C03082B16D8D4E9032313
:104AA000934238BF134603F1420A00F063FEAAEBBB
:104AB0000000002860DB00212046FFF78DFE00F09B
:104AC00059FEAAEB00000028F5DAB9F1000F5AD020
:104AD0006B1D7A6B002ABA6B08BF002203EB020A37
:104AE0000AF1070323F00703ADEB030DBB6BC7F817
:104AF00004D0EA18C2F3072376BA43EA02238DF8FA
:104B00000080ADF80160ADF80330B9F1000F3CD082
:104B1000002D3AD02A4649460DF1050003F008FC65
:104B2000681D7B6B3BB1BB6B2BB11A467B68796B05
:104B3000184403F0FDFB002555452AD2AAEB0502D7
:104B40007B682068B2F5806F28BF4FF480625919E6
:104B500001F0F3FF0646002000F00AFEBEB920680F
:104B600002F0E2F9667700F009FE0C37DD46BD463B
:104B7000BDE8F08F01238BE7217F0029A5D12046D6
:104B8000FFF72AFEA1E70523A3E70520C9E735447F
:104B9000D2E703D02046FFF77DFBE6E700F0EAFD11
:104BA0002061E2E74500002000B595B004AB00228B
:104BB0000193492300930292034B1121FFF746FF13
:104BC00015B05DF804FB00BFE8850D00F0B5ADF24F
:104BD000244D08AB002405460F46059305A84FF465
:104BE00080630E491646CDE90643FFF777FA39464A
:104BF00005A8FFF72BFB314605A8FFF727FB069B0F
:104C0000013B0093CDE90144059B2246142128462F
:104C1000FFF71CFF0DF2244DF0BD00BF9C850D0079
:104C20001FB500214048414CFFF7D6FD00F05CFF66
:104C30002368C01A63281AD900F056FF694620601D
:104C40003B4800F057FE00284ED0BDF90020364802
:104C50000121FFF7BBFFBDF9022033480221FFF716
:104C6000B5FFBDF9042030480321FFF7AFFF3148FD
:104C700000F033FA00283DD02F492E4800F04DFDBA
:104C80002C4800F002FC0E2002F093FBC11702F04A
:104C9000AFFE1FA3D3E9002302F0E0FE1EA3D3E979
:104CA000002303F005F8254B002202F01FFD244BE2
:104CB000002202F0D3FE1AA3D3E9002302F018FD6C
:104CC00041EC100B0621684601F099FB009A1D4942
:104CD000184800F07EFB4FF47A7001F09BFC6846A8
:104CE00001F01CFB04B010BD01F034FE164901F0C8
:104CF000FAFBBCE7684601F003F900990D4800F0A3
:104D0000DDFA684601F00AFBBDE700BFAFF30080A3
:104D10006666666666660A400000000000FEAF40F8
:104D2000666666666612714068E503204CE60320FD
:104D3000C4E50320ECE50320A9850D000000E03F59
:104D400000005940AF850D009F850D0030B52D4DF9
:104D500085B00021012001F04FF82846002402F020
:104D60002DF905F11C0001F039FD6C632C87264AF2
:104D70002649284602F09AFB254B26499C61C3E947
:104D80000054C3E90244C3E904449C8340F25B72CB
:104D9000214B00942148224C224D00F095F81A4AEC
:104DA00021491E4802F082FB0821204600F074FDD4
:104DB0001E4B23602978BFF35B8F11F001010BD1EB
:104DC00028460391FFF77AF9039928B1184801F0B2
:104DD00023F92846FFF777F9154BE3600323154ABB
:104DE000236100232375A2612377074A124B1349DD
:104DF0000B4823620123A38405B0BDE8304002F0D4
:104E000055BB00BF88E5032058E503200D410D0088
:104E100068E50320BD850D00CD410D00ECE50320C4
:104E2000C4E503205CE5032021570D007C8A0D00BA
:104E300060E50320D4850D0080969800A9570D00E9
:104E400091F85C3010B50446016013B1886D00F034
:104E50005BFE204610BD10B5036893F85C20044645
:104E600012B1986D00F058FE204610BDF8B51F46EF
:104E70009DF8243004460D4616462BB1012380F8D8
:104E80005C30583000F038FE089B236300236363D6
:104E900006B1A66425B1294604F1380001F09DFA57
:104EA000069B2365079BE069A4F84C70FF2BB8BFF5
:104EB000FF23A4F8543008B1FFF7F3F8B4F8540016
:104EC000FFF7EBF8E061F8BD2DE9FF41044600254E
:104ED000174698460E4602F071F80D49E56104F157
:104EE000380001F066FA9DF82830A564CDE9028308
:104EF000FF220F23CDE90032204684F85C503B4668
:104F00002A463146FFF7B2FF204604B0BDE8F081E3
:104F100014850D0010B50446204601F0ABFF0028B3
:104F2000FAD0204601F0DFFEC0B210BD2DE9F047F7
:104F30000546C4690F46FFF7EDFF2070EB6993F853
:104F400000A04FF001090AF0F00A4FF000084C46AB
:104F50002846FFF7DFFF2646EB69985500F07F03F0
:104F600013FB09F3984401340306A4B21FFA88F82E
:104F70004FEAC919ECD4631EBAF1300F3B7024D14B
:104F80002846EF69FFF7C6FF38552846EF69F41C3D
:104F9000FFF7C0FF0236B6B2A4B2B8550226B6B2C9
:104FA000B1462746C14512D22846FFF7B3FFB5F8F0
:104FB0005430BB4288BFEB6909F1010988BFD8555D
:104FC0000137BFB21FFA89F9ECE70026E7E7A8EB43
:104FD0000600B0452CBF064600263444B5F8540000
:104FE000A4B2A0422CBF20460020BDE8F087F7B550
:104FF0008C461E461D4607460023AE4602A805F015
:105000007F01BEF17F0F03F10104034488BF41F02B
:105010008001BEF17F0F4FEAD515E4B203F8041CFE
:1050200010D8C4F10403D11802F803C0C4F1050379
:10503000134401A80532934206D010F8015B03F82F
:10504000015BF8E72346D8E7721C2244384601F09A
:1050500074FD054600F048FD621C78623244A8B237
:10506000131A5842584103B0F0BD13B50446014627
:1050700001A8FFF7E5FEE369E0221A70E369002268
:105080005A70E1690222204601F057FD204601F0E6
:105090004BFF00F029FDC4E9090001A8FFF7DBFE82
:1050A00002B010BD0233F0B5044698B20023CD5CC7
:1050B00055B1B4F85460864203F1010704D9461C87
:1050C00015543B46B0B2F2E799B2441A2244091291
:1050D00002F8021C02F8013CF0BD38B5044601F0AC
:1050E00042FD002814BF0125002502D1204601F011
:1050F0001BFF284638BD00002DE9F04788B0044664
:10510000DDF840809DF850A0894617461E46FFF7FF
:10511000E4FF0546002840F0CB80214601A8FFF7B8
:105120008FFEA16C002940F08780B4F84C20A16B61
:105130002B46204601F056FF002879D00123238416
:105140009DF85430E269042B40F08180594B186877
:1051500099889B79ADF80C108DF80E300290C2F84A
:1051600005009DF80E30BDF80C10A2F80910D3729E
:105170000C23B8F1000F7FD09DF848009DF8442023
:10518000400140EAC20040F00600C0B2BAF1000F90
:1051900001D100F0FD001FB1002E6FD140F0800062
:1051A000E269D054226DE169581C12120A549A1C0B
:1051B000E169206D88540333E26949462046FFF7D0
:1051C00071FF0346B8F1000F0BD0E269414620465B
:1051D000FFF768FFE269139903462046FFF762FF75
:1051E000034667B1E26939462046FFF75BFF034695
:1051F0002EB1E26931462046FFF754FF0346053BD6
:10520000E2699BB210212046FFF7F1FE00F06CFC32
:10521000C4E909004FF47A76204601F02BFE80BBEA
:1052200000F062FCA36AC01A236D73439842F3D95D
:10523000204601F079FE34E002A801F01FFBB4F82B
:105240004C202B4602A9204601F099FD74E71A4B29
:10525000186859681B7A0DF1080CACE803008CF84B
:10526000003002AB03CBC2F80500C2F809109CF86D
:10527000003053730E237CE7022087E740F0C00024
:105280008EE702A92046FFF751FE0428D0D1E3693A
:10529000DE78002ECCD100F027FC0125A06284F836
:1052A0002C6001A8FFF7D7FD284608B0BDE8F087BD
:1052B0000025F9E733860D003A860D007FB50123FE
:1052C0000422CDE904320023CDE90233CDE90033D5
:1052D0001A46FFF711FF07B05DF804FB2DE9F74F01
:1052E000DDF83C809DF834509DF8389004468B469C
:1052F00016461F46FFF7F1FE8246002851D0214690
:1053000001A8FFF79DFDB4F85420E069002103F0E7
:105310001DF80523E26959462046FFF7C3FE6B1EC0
:10532000012B15D8218CE369013189B2218409123E
:105330001954421CE369218C92B20230995480B214
:10534000B8F1000F04D0238C5A1C2284A8F8003036
:1053500000210B188F42E2699BB20AD9B4F854C0FD
:105360009C4506D916F801C002F803C0013189B284
:10537000EFE79DF8301000290CBF30213121B9F141
:10538000000F01D041F00801022D0ED141F00401BF
:10539000053B9BB22046FFF72AFE824601A8FFF795
:1053A0005AFD504603B0BDE8F08F012D08BF41F013
:1053B0000201EDE71FB5089C0394002402949DF8B8
:1053C0001C4001949DF818400094FFF787FF04B03B
:1053D00010BD30B587B0044610460591049202F026
:1053E000EBFF00250346CDE90155DDE904210095D9
:1053F0002046FFF7DFFF07B030BD73B504460E4609
:10540000FFF76BFE0546C8B1214601A8FFF718FD5E
:10541000E36962221A70E36902225A70E369321268
:105420009A70E369DE70E1690422204601F085FB91
:10543000051E01A818BF0125FFF70DFD284602B083
:1054400070BD73B504460E46FFF747FE0546C8B16A
:10545000214601A8FFF7F4FCE36972221A70E369A0
:1054600002225A70E36932129A70E369DE70E169D0
:105470000422204601F061FB051E01A818BF01258A
:10548000FFF7E9FC284602B070BD2DE9F04F2DED85
:10549000028B87B000AF0446FFF71FFE8146F8B1CC
:1054A000214607F11400FFF7CBFC00F01DFB226D35
:1054B0004FF47A735343A26A821A9A42064603D87B
:1054C000626A821A934221D294F82C307BB1204632
:1054D00001F02AFD4FF0000907F11400FFF7BBFCB3
:1054E00048461C37BD46BDEC028BBDE8F08FE26933
:1054F000C0211170E2695370E1690222204601F077
:105500001CFBC4E90966012384F82C30204601F015
:10551000B1FC0028E0D007F113012046FFF706FD9B
:1055200083460028D8D0E369A662197801F0F0021A
:10553000302A7FD1D4F830A0BAF1000FCCD097F840
:1055400013C06A4608EE102A03EB0C0255789178D6
:1055500001EB05218DB205F108026946D208A1EBE5
:10556000C20295460CF10302FA6003EB020E0DEB4A
:1055700005026846C7F808D07A60D7E901218A4257
:1055800006D00A461EF8018B02F8018BBA60F4E7D8
:105590000022425593F80080F96808F00608ABEB4A
:1055A0000C02033AB8F1020FA2EB0502294425D1FF
:1055B00013F801E01944023A91F801B00CF1050129
:1055C000294419440BEB0E2BD047E36940221A7093
:1055D000E3691FFA8BFB83F80180E3694FEA2B2212
:1055E0009A70E36983F803B0E1690422204601F070
:1055F000A4FA666218EE103A9D466DE7B8F1040F02
:1056000015D113F801E01944023A91F801B00CF1F8
:105610000501294419440BEB0E2BD047E3695022B6
:105620001A70E36902221FFA8BFB5A70D5E71944FE
:10563000D047DFE7502A08D19A78D97801EB0221C8
:1056400089B22046FFF7D9FE46E7402A12D1626BA5
:10565000002A3FF441AFBBF1040F7FF43DAF11F0DE
:10566000060F7FF439AF9978D87800EB012080B22B
:10567000904731E7602A08D19A78D97801EB022166
:1056800089B22046FFF7DDFE26E7702ADFD0902A98
:105690003FF422AFC02A0AD1D0221A70E369002257
:1056A0005A70E1690222204601F047FA14E7D02A35
:1056B00004BF002384F82C300EE7F7B504460F46EC
:1056C0001646FFF70AFD054610B3214601A8FFF76D
:1056D000B7FB238C01339BB2EBB12384238CE269AB
:1056E0001B125371E369228C9A71E26907233946D0
:1056F0002046FFF7D7FCE3691E54043883B2E26901
:1057000082212046FFF773FC054601A8FFF7A3FBA3
:10571000284603B0F0BD0123DFE70022FFF7CDBF2D
:1057200038B50546FFF7D9FC10B12846FFF79DFCB8
:10573000E86908B1FEF7B5FC05F1380000F0EEFDB0
:10574000AC690A4B2B607CB16368013B63605BB959
:10575000236820469B689847A368013BA3601BB958
:1057600023682046DB689847284638BDDC8B0D004F
:1057700000F050BF00F0B8B97047704770470000A4
:1057800003065ABF024B53F820000020704700BFA9
:1057900044860D0003065ABF024B53F82000002038
:1057A000704700BF44880D00704710B5282104469B
:1057B00001F081FE204610BD10B5044600F118012D
:1057C000C06800F05FFC208A0021BDE8104001F0B5
:1057D000C4BD10B504460121008A01F0BEFDE06899
:1057E000BDE8104000F035BCF8B51E4603685B69A3
:1057F0000F46144605469847012E88BF47F04007DC
:10580000E86847F0800100F0ABFC2644B44206D0C3
:10581000E868002100F0A4FC04F8010BF6E72B680F
:1058200028469B6998470120F8BDF8B51E460368D5
:105830005B690F46144605469847012E88BF47F01E
:105840004007E868394600F08BFC2644B44205D096
:1058500014F8011BE86800F083FCF7E72B68284682
:105860009B6998470120F8BD002202704270827047
:10587000C270027142718271C2710272427282728E
:105880007047002241F0070101700271827042707E
:10589000C271427270470000024AC0E90021002232
:1058A00002727047608A0D0013B5036801AADC68B4
:1058B0000123A0479DF8040002B010BD38B505468D
:1058C0000A240F212846FFF7EFFF33284FF001008D
:1058D00004D000F09FFE013CF3D1204638BD10B546
:1058E0000446018AC06800F0A1FB2046BDE81040D4
:1058F000FFF7E4BFF7B50C4627210546FFF7D4FFB5
:1059000000F00800002814BF012600261BD02B68D9
:105910006A46DF68282106232846B8479DF80120FB
:105920009DF8003043EA022323809DF803209DF870
:10593000023043EA022363809DF805209DF804307D
:1059400043EA0223A380304603B0F0BD13B50368D9
:105950008DF804201C6901AA0123A04702B010BDE4
:1059600070B503689B6804460D469847064630B9F3
:1059700000F0F0FF274900F0B6FD304670BD2A78F0
:1059800020212046FFF7E2FF6A7821212046FFF719
:10599000DDFFAA7822212046FFF7D8FFEA782321ED
:1059A0002046FFF7D3FF2A7924212046FFF7CEFFB8
:1059B0006A7925212046FFF7C9FFAB791BB1262163
:1059C0002046FFF771FFAA7A2E212046FFF7BEFF7F
:1059D000AB785B06D1D5EA7932212046FFF7B6FFD6
:1059E0002A7A33212046FFF7B1FF6368002B0ADBD8
:1059F0006A7A227220463021FFF7A8FF3121204623
:105A0000FFF752FFB9E70022227230212046FFF74C
:105A10009DFFB2E7448A0D0008B5024B1B689B68E6
:105A2000019308BD6802030008B5024B1B68DB68E0
:105A3000019308BD6802030008B5024B1B685B6850
:105A4000019308BD2C02030008B5024B1B689B683C
:105A5000019308BD2C02030008B5024B1B68DB68EC
:105A6000019308BD2C02030008B5024B1B681B699B
:105A7000019308BD2C02030008B5024B1B685B694B
:105A8000019308BD2C02030008B5024B1B689B6AFA
:105A9000019308BD2C02030008B5024B1B681B6B69
:105AA000019308BD2C02030008B5024B1B689B6FD5
:105AB000019308BD2C02030008B5024B1B685B690B
:105AC000019308BD6C02030008B5024B1B685B68BC
:105AD000019308BD1802030008B5024B1B68DB6880
:105AE000019308BD1802030008B5024B1B685B69EF
:105AF000019308BD1802030008B5024B1B681B6B1D
:105B0000019308BD4802030008B5024B1B689B6B5C
:105B1000019308BD4802030008B5024B1B681B6CCB
:105B2000019308BD4802030008B5024B1B685B6C7B
:105B3000019308BD4802030008B5024B1B689B6C2B
:105B4000019308BD4802030008B5024B1B685B695E
:105B5000019308BD6402030008B5024B1B681B6A71
:105B6000019308BD6402030008B5024B1B689B6AE1
:105B7000019308BD6402030008B5024B1B681B6853
:105B8000019308BD3C02030008B5024B1B68DB68AB
:105B9000019308BD3C02030008B5024B1B681B695A
:105BA000019308BD3C02030008B5024B1B685B690A
:105BB000019308BD3C02030008B5024B1B689B69BA
:105BC000019308BD3C02030008B5024B1B68DB696A
:105BD000019308BD3C02030008B5024B1B681B6A19
:105BE000019308BD3C02030008B5024B1B689B6A89
:105BF000019308BD3C02030008B5024B1B681B6AF9
:105C0000019308BD2802030008B5024B1B685B6ABC
:105C1000019308BD2802030008B5024B1B689B6A6C
:105C2000019308BD2802030008B5024B1B68DB6A1C
:105C3000019308BD2802030008B5024B1B681B6BCB
:105C4000019308BD2802030008B5024B1B685B6B7B
:105C5000019308BD2802030008B5024B1B681B6CAA
:105C6000019308BD2802030008B5024B1B689B691D
:105C7000019308BD3802030008B5024B1B68DB69BD
:105C8000019308BD3802030008B5024B1B681B6A6C
:105C9000019308BD3802030008B5024B1B689B6ADC
:105CA000019308BD3802030008B5024B1B681B6B4B
:105CB000019308BD3802030008B5024B1B689B6BBB
:105CC000019308BD3802030008B5024B1B681B682E
:105CD000019308BD3002030008B5024B1B685B69E5
:105CE000019308BD3002030008B5024B1B68DB6955
:105CF000019308BD3002030008B5024B1B681B6A04
:105D0000019308BD3002030008B5024B1B685B6AB3
:105D1000019308BD3002030008B5024B1B68DB6B22
:105D2000019308BD3002030008B5024B1B681B6CD1
:105D3000019308BD3002030008B5024B1B685B6C81
:105D4000019308BD3002030008B5024B1B681B68B5
:105D5000019308BD4C02030008B5024B1B685B6849
:105D6000019308BD4C02030008B5024B1B681B6978
:105D7000019308BD4C02030008B5024B1B685B6928
:105D8000019308BD4C02030008B5024B1B689B69D8
:105D9000019308BD4C02030008B5024B1B68DB6988
:105DA000019308BD4C02030008B5024B1B681B6A37
:105DB000019308BD4C02030008B5024B1B685B6BE6
:105DC000019308BD6002030008B5024B1B681B6D00
:105DD000019308BD6002030008B5024B1B685B68B5
:105DE000019308BD2002030008B5024B1B685B69E4
:105DF000019308BD2002030008B5024B1B68DB6A53
:105E0000019308BD2002030008B5034B1B68D3F8BB
:105E10008830019308BD00002002030008B5034B41
:105E20001B68D3F89430019308BD000020020300E2
:105E300008B5024B1B685B68019308BD4002030074
:105E400008B5024B1B689B68019308BD4002030024
:105E500008B5024B1B68DB68019308BD40020300D4
:105E600008B5024B1B681B69019308BD4002030083
:105E700008B5024B1B685B69019308BD4002030033
:105E800008B5024B1B689B69019308BD40020300E3
:105E900008B5024B1B68DB69019308BD4002030093
:105EA00008B5024B1B681B6A019308BD4002030042
:105EB00008B5024B1B681B6B019308BD4002030031
:105EC00008B5024B1B685B6B019308BD40020300E1
:105ED00008B5024B1B681B6C019308BD4002030010
:105EE00008B5024B1B685B6C019308BD40020300C0
:105EF00008B5024B1B689B68019308BD4402030070
:105F000008B5024B1B68DB69019308BD440203001E
:105F100008B5024B1B68DB6B019308BD440203000C
:105F200008B5024B1B681B68019308BD1C020300E7
:105F300008B5024B1B685B68019308BD1C02030097
:105F400008B5024B1B689B68019308BD1C02030047
:105F500008B5024B1B68DB69019308BD1C020300F6
:105F600008B5024B1B685B6A019308BD1C02030065
:105F700008B5024B1B68DB6B019308BD1C020300D4
:105F800008B5024B1B685B6C019308BD1C02030043
:105F9000002240681146FFF783BF00224068114687
:105FA000FFF78EBF40680022FFF782BF40680022E3
:105FB00081F00101FFF76CBF002340681A461946C3
:105FC000FFF75EBF002340681A461946FFF750BF2F
:105FD000002240681146FFF743BF00224068114687
:105FE000FFF72EBF406800220221FFF731BF0023D8
:105FF00040681A46FFF71CBF024B03225A60024A50
:106000001A60704750E60320A08A0D000021FFF7B8
:106010008BBE0021FFF790BE10B5044608462170E4
:10602000FFF762FE00236360204610BD13B50446EF
:1060300000780191FFF7EAFF019940B92078FFF756
:1060400043FE207802B0BDE81040FFF7E2BF02B087
:1060500010BD0078FFF7DDBF400830B518600024A0
:1060600018688842E5B206D90134082C02D04008ED
:106070001860F5E70725024B5B5D137030BD00BF6C
:10608000D48A0D002DE9F04306468FB000780C4607
:10609000FFF7BCFF00281BDB35781422002109A87C
:1060A00002F054F90B23002209A92846ADF8243048
:1060B000FFF72AFE9DF82D3013B19DF82C5055B1F5
:1060C0000027B946B846012523795DB1C3B1002048
:1060D0000FB0BDE8F083DDF830809DF834909DF876
:1060E0003570F1E7002B35D1A368434508D18DF811
:1060F00020908DF82170BDF82020A3899A42E6D027
:106100000023A1688DF80F300A9804AB0DF10F023F
:10611000FFF7A2FF217985B989B9A36843450ED35A
:106120008DF820908DF82170BDF82020A3899A4227
:1061300005D1049B434502D1C9E70029F9D10023C9
:106140000193637B00939DF80F20237B3078FFF74A
:10615000E3FDBCE7CDE900552B462A460121F5E7D2
:1061600008B50078FFF7B8FDC0B208BD10B5044609
:10617000006818B1FFF7DCFE0023236010BD10B5E6
:106180000446FFF7F3FF204610BD000010B5094B91
:10619000094C022200201A60084B2060A080A071E8
:1061A000A360FFF719FE2046054A0649BDE81040E6
:1061B00001F07CB964E6032058E603200000FFFFED
:1061C00058E503207F610D0010B5044602F0F4F895
:1061D000013823182046834206D90278197800F83E
:1061E000011B03F80129F6E710BD70B50C46911E9E
:1061F0002229054622D820466DB1B5FBF2F602FBF6
:106200001655E9B2092D94BF30315731C9B200F8A3
:10621000011B3546F0E7024623443021934202D960
:1062200002F8011BFAE71A1A834238BF0022002342
:1062300083542046FFF7C8FF204670BD0020FCE7CE
:1062400070B586B0064601AD684600F017FB0FCD6D
:10625000341D0FC42B682370304606B070BD00009B
:106260002DE9F04757EC106B80460C4610EE100AF3
:1062700000220023394601F063FE28B107F10043F4
:106280001F462D2304F8013B00234FF001090A2289
:10629000D9B2884503D902FB09F90133F8E748462A
:1062A00001F072FB32463B4601F0D8FB06460F4632
:1062B00001F0A6FE05468A4601F09AFB02460B460F
:1062C0003046394601F012FA134B002201F04CFE21
:1062D00010B101354AF1000A4A462846D317514603
:1062E00001F076FE0123154621460A22FFF77DFFC5
:1062F000B8F1000F0DD0204602F05EF82E232118D1
:1063000023540A22434628460131BDE8F047FFF7EF
:106310006CBFBDE8F08700BF0000E03F10B5044649
:106320000068FFF705FE204610BD10B50446006862
:1063300008B1FFF7FDFD0023C4E90133236010BD60
:1063400038B504460D4600680131FFF7F9FD10B17C
:10635000C4E90005012038BD10B50368044623B127
:1063600043688B4201D3012010BD2046FFF7E8FFB0
:106370000028F9D0A368002BF5D122681370F2E74A
:1063800037B50D46114601920446FFF7E5FF019A25
:1063900028B92046FFF7C9FF204603B030BDA260F0
:1063A0002946206801F0C4FF2268A3680021D15467
:1063B000F2E7002313B5C0E900330446836003739A
:1063C00041B10846019101F0F7FF019902462046CC
:1063D000FFF7D6FF204602B010BD13B5044659B1F1
:1063E0000846019101F0E8FF019902462046FFF7B7
:1063F000C7FF204602B010BDFFF797FFF9E710B5C1
:1064000004468AB000230846C4E90033A36023731E
:1064100001A9C0B2FFF724FF01A92046FFF7DDFF65
:1064200020460AB010BD10B50446006808B1FFF759
:1064300083FB204610BD10B58368044613B10322C8
:1064400001469847204610BD10B5064C0023204653
:106450002360FFF769FB2046034A0449BDE810406A
:1064600001F024B868E6032058E5032027640D00F6
:10647000F8B506460D468F180024BD420CD033688F
:1064800015F8011B9B6830469847031E01DB1C442E
:10649000F3E7002C08BF1C462046F8BD13B50446A0
:1064A000084659B1019101F087FF23680199DB6823
:1064B0000246204602B0BDE81040184702B010BDA9
:1064C00008B5FFF7EBFF08BD03689B68184738B5B0
:1064D0000D210546FFF7F8FF0A2104462846FFF77D
:1064E000F3FF204438BD38B50546FFF7D7FF044613
:1064F0002846FFF7ECFF204438BD30B58BB00023B1
:106500008DF82430012A98BF0A2209AC0D46B1FB50
:10651000F2F101FB125303F0FF03092B94BF303358
:106520003733DBB2AA4204F8013DEFD92146FFF729
:10653000B5FF0BB030BD2DE9F04186B000AF054688
:106540000E46381D142114463B60FFF709FD132841
:106550000ED8391D2846FFF7A1FF04461EB1284674
:10656000FFF7B5FF044420461837BD46BDE8F0816B
:1065700000F1080323F00703E846ADEB030D2246C4
:10658000411C3B686846FFF7EBFC69462846FFF76D
:1065900085FF0446C546E1E710B50446FFF7A4FAB7
:1065A000E060236820465B699847002808DAFFF717
:1065B0009BFAE368C01AA3689842F2D34FF0FF3009
:1065C00010BDF8B506460D4617460024BC4207D05C
:1065D0003046FFF7E1FF031E02DB2B550134F5E7E0
:1065E0002046F8BD002340681A461946FFF740BC14
:1065F000014B024A1A6070476CE60320E48A0D00E2
:10660000024B1A68024B1A60704700BFF0E4032087
:1066100070E603200021FFF7E7BB10B50446FFF743
:106620000AFF204610BD00000348044A0449002325
:10663000836000F03BBF00BF74E6032058E50320F1
:106640001B660D00014B1860704700BFF4E4032087
:1066500008B50B4B43B100F07DF903681B699847FF
:10666000002801DDAFF30080064B43B100F0F0F9E4
:1066700003681B699847002801DDAFF3008008BD5F
:10668000000000000000000008B5FFF7E1FFFFF781
:106690002BFA014B186008BDD4E703200248034AD7
:1066A0000349121A01F044BE00F4032004F403204D
:1066B000C88E0D0007B5002300931A466FF07701CE
:1066C000FFF7ACFB03B05DF804FB000007B543889F
:1066D0000A2B08D0502B0BD1094B1B684BB103B0D0
:1066E0005DF804EB1847FFF7E5FF03B05DF804FB26
:1066F000002300931A466FF07701FFF78FFBF4E752
:1067000088E6032038B5124C1248134D0021FFF7DC
:1067100037FC2368AB42114B0CBF012200221A70D8
:1067200002D0FFF7BBFF2560FFF7CEF9044601F06A
:1067300015FE0B4B13B12046AFF300800021084833
:10674000FFF7E6FBBDE8384006480021FFF75CBBD9
:1067500000F4032045660D001E1C279A84E60320E2
:1067600000000000CD660D00704710B518210446EA
:1067700000F0A1FE204610BDF0B5037D062B8DB0C4
:106780000E4600F104074FF0000412D000F1080596
:1067900015F8011D0A223046FFF7AFFEAF42044450
:1067A00019D0002CF4D02E213046FFF78DFE044482
:1067B000EEE72F236A4639460A208DF80040FFF79E
:1067C000C3F9684601F0F8FD33680246DB686946A4
:1067D00030469847044620460DB0F0BD10B5054B35
:1067E0000446112240F8043B002101F0AFFD204691
:1067F00010BD00BF0C8B0D000346074A10B543F8CF
:10680000042B01F1100251F8044B43F8044B914260
:10681000F9D10A781A7010BD0C8B0D00037D042B82
:1068200004D14068003818BF01207047062B07D1FB
:1068300043683BB983682BB9C3681BB90069F1E7AA
:10684000002070470120704710B59DF8084044EAC9
:10685000032343EA024242EA0161042341600375D3
:1068600010BD000037B5044D05609DF81850009527
:10687000FFF7EAFF03B030BD0C8B0D0013B5054BDD
:106880000360CB7800938B784A780978FFF7DCFFB8
:1068900002B010BD0C8B0D0041747047704708B5F5
:1068A0000021007CFFF770FA40EAE07008BD08B5EF
:1068B0000121007CFFF768FA40EAE07008BD08B5E6
:1068C000007CFFF759FA20EAE07008BD08B5007CAB
:1068D000FFF74AFA20EAE07008BD13B50446007CD1
:1068E0000191FFF749FA0028019901DC607C20B191
:1068F000207CFFF751FA20EAE07002B010BD007C66
:10690000FFF752BA10B51421044600F0D4FD20461A
:1069100010BD000010B54FF47A73044608460021FC
:10692000C4E90113044B23600123207463741146EE
:10693000FFF70AFA204610BD208B0D00007C0022D4
:10694000FFF70ABA10B514220446002101F0FEFC3C
:10695000204610BD10B5104C88B003A8FFF7F2FF19
:106960002178BFF35B8F11F0010111D12046019115
:10697000FDF7A4FB019958B103AA0848FFF7CAFF25
:106980002046FDF7A0FB064A0649044800F08EFDAC
:10699000024808B010BD00BF8CE6032090E603203B
:1069A00058E503209D680D0070474174704708B595
:1069B000007CFFF719F920EAE07008BD08B5007CFB
:1069C000FFF7EAF820EAE07008BD08B5007CFFF7A1
:1069D000F3F840EAE07008BD08B5007CFFF7E4F882
:1069E00040EAE07008BD007CFFF7EEB837B5457CA3
:1069F00004462DB1207C03B0BDE83040FFF7C4B899
:106A0000007C0191FFF7F0F800280199F2DC28469C
:106A100003B030BD10B51421044600F04CFD2046F3
:106A200010BD000010B54FF0000C0446084611469A
:106A30004FF47A72C4E901C2044A22600122207430
:106A400062741A46FFF798F8204610BD508B0D006F
:106A500013B50E4C2178BFF35B8F11F0010112D1F9
:106A600020460191FDF72AFB019960B1084A094BC4
:106A70000948FFF7D7FF2046FDF725FB074A0849DD
:106A8000054800F013FD044802B010BDA4E6032041
:106A9000A8E603202CE70320B0E7032058E50320F5
:106AA000A9690D007047F8B5064615460C468F18C3
:106AB000BC4206D0336814F8011B9B6830469847E7
:106AC000F6E72846F8BD007C0022FFF795B8007C69
:106AD0000021FFF799B8007C0021FFF79DB8007CEA
:106AE0000021FFF7A1B8007C0021FFF7A5B810B581
:106AF0001421044600F0DFFC204610BD10B54FF411
:106B00007A73044608460021C4E90113034B23604D
:106B100020741146FFF7A0F8204610BD808B0D00B1
:106B200013B503688DF80710DC6B01224FF0FF33BB
:106B30000DF10701A04702B010BD10B40368DC6B73
:106B40004FF0FF33A4465DF8044B604713B513467E
:106B500002688DF80710D46B0DF107010122A047E0
:106B600002B010BD704738B543691A68002A05465F
:106B700010DAB3F88620B3F884309A420AD1036859
:106B80001B699847044628B92B682846DB6A984752
:106B9000204638BD0120FCE743691868C043C00F98
:106BA00070477047064B994210B500F10C0405D0B0
:106BB000084600F085FC002808BF0024204610BDD0
:106BC000DC8A0D0010B5AC21044600F074FC2046B0
:106BD00010BDFDF764BA2DE9F0414FF0000886B012
:106BE0001D46C0F8048004460E4617464146102252
:106BF00002A801F0ABFB6B1C09D04FF47A70B5FB17
:106C0000F0F3CDE9023800FB135358430490606958
:106C100010230093006802AB41F2050240F6FF71B9
:106C2000FFF722F8002807DAFFF7A2F9036863608C
:106C3000002006B0BDE8F0816069002300683A4694
:106C40003146FFF731F8031EEEDB1846F1E700008E
:106C500038B584690A4B036005467CB16368013B23
:106C600063605BB9236820469B689847A368013B33
:106C7000A3601BB923682046DB689847284638BDC7
:106C8000DC8B0D0010B50446FFF7E2FF20461C2107
:106C900000F011FC204610BD70B54D69054B04464F
:106CA0008C3544F8043B06460FCD0FC42B68237087
:106CB000304670BD0C8B0D0010B54369B3F88620CB
:106CC000B3F884309A42044605D06369B3F884204F
:106CD0001344187910BD03681B6998470028F4D144
:106CE0004FF0FF30F6E710B54369B3F88620B3F8EC
:106CF00084309A42044608D06369B3F88420511C5A
:106D0000A3F884101344187910BD03681B699847D1
:106D10000028F1D14FF0FF30F6E7F8B54369174688
:106D2000B3F88620B3F884309A4205460E4616D052
:106D30006969B1F88430B1F88640E41ABC4228BFD2
:106D40003C46043322461944304601F0F1FA6A69A0
:106D5000B2F884302344A2F884302046F8BD03689A
:106D60001B6998470028E3D14FF0FF34F5E74269EB
:106D70000023A2F884304269A2F8863070472DE9DA
:106D8000F0411F4603680C46DB6A8AB0054616468A
:106D90009847237DD5F81480042B0CBF02200A20CD
:106DA00006220121FEF788FFC8F800006B691B6806
:106DB000002B08DA2B682846DB6A00249847204617
:106DC0000AB0BDE8F0812846FFF7D1FFB7B1002334
:106DD00003A9F8B20393ADF81030FEF76DFE00285A
:106DE000E8D1686906230093006803AB41F20B0207
:106DF00040F6FF71FEF738FF0028DBD11C2200218E
:106E000003A801F0A3FA237D042B1DD14FF40773CF
:106E10003046ADF80C30FEF7A7FEADF80E00606806
:106E2000FEF79AFE04906B691C22186803A9FEF70E
:106E30002BFF0028BED104340FCC6D698C350FC5F3
:106E400023682B700124BAE740F61C233046ADF8C6
:106E50000C30FEF789FE05AEADF80E00231D04F1DF
:106E6000140718685968324603C20833BB421646F5
:106E7000F7D1D8E730B54269B2F886308BB0044616
:106E80002BB1B2F884209A4201D1FFF770FF6169FB
:106E90000868002818DBB1F886507F2D14D804311B
:106EA0000823C5F180022944FEF7F6FE002813DD11
:106EB0006369B3F886200AB9A3F884206369B3F83C
:106EC00086201044A3F886006369B3F88600B3F8FF
:106ED0008430C01A0BB030BDFFF74AF803680B2BA3
:106EE000F2D0FFF745F803680B2BEDD020230025E7
:106EF000CDE90235FFF73CF803680193084B0949D7
:106F0000009302AA2B463220FEF75EFF63691868E1
:106F1000FEF7B2FE63694FF0FF321A60D4E700BF9C
:106F2000A78B0D00A08B0D0010B5436904461868AF
:106F3000002801DBFEF7A0FE63694FF0FF321A6004
:106F40006069112200218C3001F000FA2046BDE872
:106F50001040FFF70CBF10B5002304460160C0F8D5
:106F600084308830FFF73AFC204610BD73B500230B
:106F70004FF47A72C0E901320E4A03610260436144
:106F80000446AC200191FDF786F8051E05F10C06BC
:106F900008D00123C5E90133074B01992B60304626
:106FA000FFF7D9FF2046C4E90565FFF7E0FE02B010
:106FB00070BD00BFDC8B0D00C08B0D0010B54FF015
:106FC000FF310446FFF7D2FF204610BD10B504463E
:106FD0000068002801DBFEF74FFE204610BD0C3094
:106FE000FFF7F4BF2DE9F0439846036893B00D46D0
:106FF0000024DB6A06461746984728466B46224619
:1070000021460094FEF710FD0546002863D1009B41
:10701000002B4BD05B69002B48D006A8FFF7DEFBA6
:10702000009B5C696378022B04D1211D06A8FFF741
:1070300007F926E00A2B24D11122294601A801F0E4
:1070400085F9A368002B38D004F108030DF1040C76
:10705000183418685968624603C20833A34294463C
:10706000F7D1062301A90CA88DF81430FFF7C4FB53
:107070000DF1340CBCE80F0007AC0FC4DCF8003095
:10708000237006A8FFF7CAFB80B1336807ADD3F8B9
:107090002090124B0C930FCD0DAC0FC42B682370B6
:1070A0003A4643460CA93046C84705460098FEF7C5
:1070B000B3FC284613B0BDE8F083E368002BC3D1CE
:1070C0004FF6FF70D4F81090FEF746FD8145BBD116
:1070D00004F11401AAE72546E8E700BF0C8B0D0078
:1070E000002240681146FEF7BBBE002240681146F0
:1070F000FEF7D6BE002240681146FEF7E1BE4068AA
:107100000022FEF7D5BE4068002281F00101FEF7A3
:10711000BFBE002340681A461946FEF7B1BE0022E2
:1071200040681146FEF78CBE406800220221FEF73F
:107130008FBE002340681A46FEF77ABE024B042237
:107140005A60024A1A607047C4E70320288C0D0079
:10715000002340681A46FEF76BBE406800220221F9
:10716000FEF776BE002240681146FEF769BE002297
:1071700040681146FEF774BE002340681A4619465F
:10718000FEF776BE002340681A461946FEF778BE21
:1071900040680021FEF79CBE40680021FEF7A0BEBB
:1071A0004068002281F00101FEF772BE40680022B3
:1071B000FEF77EBE002240681146FEF781BE002227
:1071C00040681146FEF76CBE2DE9F043002495B0EF
:1071D00016460D460746FFF701FB214618220EA86A
:1071E000009401F0B3F84023CDE90C3421466B46FE
:1071F0000CAA3046FEF718FC044600284CD1024683
:1072000001216868FEF72CFE02218046224668684C
:10721000FEF726FE009E81462146002E3CD0002926
:107220003AD17368022B03D00A2B11D0F669F4E728
:10723000B8F1000F0AD0716906A8043107ADFFF755
:107240001DFB0FCD3C1D0FC42B6823704146EDE79D
:10725000B9F1000F01D14946E8E77469102201A88D
:1072600001F074F806238DF8143001AD04F1080321
:107270001834186859682A4603C20833A3421546D1
:10728000F7D101A906A807ADFFF7B6FA0FCD3C1D4F
:107290000FC42B682370DEE70098FEF7BDFB38466D
:1072A00015B0BDE8F0830000024B034A1A600022CB
:1072B0005A607047CCE70320648C0D00232813B577
:1072C00002D9002002B010BDA0F10B03022B1AD886
:1072D000174C2178BFF35B8F11F001010BD12046D1
:1072E0000191FCF7EBFE019928B11248FEF794FEDC
:1072F0002046FCF7E8FE0F4B1878FEF7FDFC00284F
:10730000DFD10120DEE7012809D800F0A7F800212D
:10731000007CFEF799FC80F00100C0B2D2E709388A
:107320000128EED8FFF794FB007CFEF755FCF2E74E
:107330005CE5032060E50320232838B504460D46AC
:107340000AD8FF2908D0FFF7B9FF28B129462046FF
:10735000BDE83840FEF778BB38BD38B504460D4669
:10736000FEF77AFBFF2810D0062804D84D2323FA15
:1073700000F0C30709D42046FFF7A0FF28B1294633
:107380002046BDE83840FEF76FBB38BD10B5044657
:10739000FEF762FB031FDBB2012B08D92046FFF783
:1073A0008DFF20B12046BDE81040FEF765BB0020F0
:1073B00010BD0D2810B504469CBF0E34A4B2204663
:1073C000FFF77CFF50B103212046FEF735FB032871
:1073D00004D12046BDE81040FEF75EBB002010BD82
:1073E00038B504460D46FFF769FFF0B10421204689
:1073F000FEF722FB042805D1A9B22046BDE838409B
:10740000FEF742BB02212046FEF716FB02280CD1F4
:107410002046FEF721FB012801D0042805D129468A
:107420002046BDE83840FEF73FBB38BD38B50023E5
:1074300020254380142304460380856005610649A6
:10744000284600F03AF804496060284600F035F814
:10745000E060204638BD00BF988C0D0030B50F4D60
:107460002978BFF35B8F11F0010487B013D1284650
:10747000FCF724FE78B101A8FFF7D8FF01AA214646
:107480000748FFF73BFB2846FCF71DFE054A064967
:10749000034800F00BF8024807B030BDD8E70320DE
:1074A000DCE7032058E50320A56A0D000B460146E2
:1074B000184600F02FBFFCF7F2BDFCF7EEBD000050
:1074C000014900F0F9B800BFB48C0D007FB500246D
:1074D0001023CDE90234036800949E698DF80440BE
:1074E00015466B461268B0479DF8043003F006035A
:1074F000062B03BF009B2B600120204604B070BD0B
:107500000098904214BF01200620704710B5034B2D
:107510000360044600F0CDF8204610BDF48C0D0049
:1075200010B50446FFF7F2FF20460821FFF7C3FF1E
:10753000204610BD2DE9F0411F46DDE90834DDF895
:10754000188098450646154607D1079900F0B4F80B
:1075500018B165710020BDE8F0813946304600F071
:10756000ABF80028F6D00123C4F800802571A37180
:10757000F0E738B515461C4600F09EF820B1082308
:10758000E36006232560237138BD73B505460C46BC
:1075900001921E4600F090F850B9032E08D82368D7
:1075A000019A5B692946204602B0BDE87040184741
:1075B00002B070BD10B5034B03600446FFF7A6FF91
:1075C000204610BD548D0D0010B50446FFF7F2FFA4
:1075D00020460C21FFF76FFF204610BDF7B5089F2E
:1075E000974205460E4614460AD0A86802680897D6
:1075F000156A31462246AC4603B0BDE8F04060470C
:107600001946019300F058F8019B0028EDD00620A0
:1076100003B0F0BD2DE9F14F0D461946DDE90A4BE7
:10762000DDE90CA681461746984600F045F890B172
:10763000002D3460377109DB61198A450CBF0621C2
:107640000121B171002001B0BDE8F08F0235F9D100
:107650000123B371F6E7544506D15946484600F078
:107660002BF808B17771EDE7D9F808000368CDE988
:107670000CA6CDE90A4BDC693A4643462946A446A6
:1076800001B0BDE8F04F60472DE9F04107460C46D8
:1076900015461E46FFF76DFF48B9B86803689F6935
:1076A0002A4633462146BC46BDE8F0416047BDE866
:1076B000F081704700207047814208B50ED04068C5
:1076C00003782A2B0CD049680B782A2B08BF01318C
:1076D00000F068FEB0FA80F0400908BD0120FCE728
:1076E0000020FAE781F0004102E000BF83F0004390
:1076F00030B54FEA41044FEA430594EA050F08BF4D
:1077000090EA020F1FBF54EA000C55EA020C7FEA10
:10771000645C7FEA655C00F0E2804FEA5454D4EB8D
:107720005555B8BF6D420CDD2C4480EA020281EA57
:10773000030382EA000083EA010180EA020281EA8F
:107740000303362D88BF30BD11F0004F4FEA0131E1
:107750004FF4801C4CEA113102D0404261EB4101F0
:1077600013F0004F4FEA03334CEA133302D0524276
:1077700063EB430394EA050F00F0A780A4F1010432
:10778000D5F1200E0DDB02FA0EFC22FA05F280186C
:1077900041F1000103FA0EF2801843FA05F3594152
:1077A0000EE0A5F120050EF1200E012A03FA0EFCD1
:1077B00028BF4CF0020C43FA05F3C01851EBE371FB
:1077C00001F0004507D54FF0000EDCF1000C7EEB18
:1077D00000006EEB0101B1F5801F1BD3B1F5001F56
:1077E0000CD349085FEA30004FEA3C0C04F1010475
:1077F0004FEA445212F5800F80F09A80BCF1004F9E
:1078000008BF5FEA500C50F1000041EB045141EA1F
:10781000050130BD5FEA4C0C404141EB0101013CE8
:1078200028BFB1F5801FE9D291F0000F04BF0146D7
:107830000020B1FA81F308BF2033A3F10B03B3F1A9
:1078400020020CDA0C3208DD02F1140CC2F10C0239
:1078500001FA0CF021FA02F10CE002F11402D8BF97
:10786000C2F1200C01FA02F120FA0CFCDCBF41EA63
:107870000C019040E41AA2BF01EB0451294330BD32
:107880006FEA04041F3C1CDA0C340EDC04F114040F
:10789000C4F1200220FA04F001FA02F340EA0300E6
:1078A00021FA04F345EA030130BDC4F10C04C4F12C
:1078B000200220FA02F001FA04F340EA030029460C
:1078C00030BD21FA04F0294630BD94F0000F83F456
:1078D000801306BF81F480110134013D4EE77FEA39
:1078E000645C18BF7FEA655C29D094EA050F08BF85
:1078F00090EA020F05D054EA000C04BF1946104666
:1079000030BD91EA030F1EBF0021002030BD5FEAA9
:10791000545C05D14000494128BF41F0004130BDD1
:1079200014F580043CBF01F5801130BD01F0004525
:1079300045F0FE4141F470014FF0000030BD7FEA98
:10794000645C1ABF194610467FEA655C1CBF0B4693
:10795000024650EA013406BF52EA033591EA030FAA
:1079600041F4002130BD00BF90F0000F04BF0021A2
:10797000704730B54FF4806404F132044FF00005D5
:107980004FF0000150E700BF90F0000F04BF00214E
:10799000704730B54FF4806404F1320410F00045B4
:1079A00048BF40424FF000013EE700BF42004FEAAF
:1079B000E2014FEA31014FEA02701FBF12F07F432C
:1079C00093F07F4F81F06051704732F07F4208BFE3
:1079D000704793F07F4F04BF41F40021704730B5EA
:1079E0004FF4607401F0004521F000411CE700BF36
:1079F00050EA010208BF704730B54FF000050AE0B9
:107A000050EA010208BF704730B511F0004502D5B9
:107A1000404261EB41014FF4806404F132045FEABB
:107A2000915C3FF4D8AE4FF003025FEADC0C18BF64
:107A300003325FEADC0C18BF033202EBDC02C2F156
:107A4000200300FA03FC20FA02F001FA03FE40EAE8
:107A50000E0021FA02F11444BDE600BF70B54FF0EC
:107A6000FF0C4CF4E06C1CEA11541DBF1CEA1355CA
:107A700094EA0C0F95EA0C0F00F0DEF82C4481EA32
:107A8000030621EA4C5123EA4C5350EA013518BF52
:107A900052EA033541F4801143F4801338D0A0FB3F
:107AA00002CE4FF00005E1FB02E506F00042E0FBEC
:107AB00003E54FF00006E1FB03569CF0000F18BFF2
:107AC0004EF0010EA4F1FF04B6F5007F64F540749A
:107AD00004D25FEA4E0E6D4146EB060642EAC6212D
:107AE00041EA55514FEAC52040EA5E504FEACE2E9A
:107AF000B4F1FD0C88BFBCF5E06F1ED8BEF1004F9D
:107B000008BF5FEA500E50F1000041EB045170BD18
:107B100006F0004646EA010140EA020081EA03015C
:107B2000B4EB5C04C2BFD4EB0C0541EA045170BD58
:107B300041F480114FF0000E013C00F3AB8014F1D2
:107B4000360FDEBF002001F0004170BDC4F100041B
:107B5000203C35DA0C341BDC04F11404C4F120059C
:107B600000FA05F320FA04F001FA05F240EA0200F7
:107B700001F0004221F0004110EBD37021FA04F62D
:107B800042EB06015EEA430E08BF20EAD37070BDE7
:107B9000C4F10C04C4F1200500FA04F320FA05F046
:107BA00001FA04F240EA020001F0004110EBD37048
:107BB00041F100015EEA430E08BF20EAD37070BDB8
:107BC000C4F1200500FA05F24EEA020E20FA04F391
:107BD00001FA05F243EA020321FA04F001F0004140
:107BE00021FA04F220EA020000EBD3705EEA430EB1
:107BF00008BF20EAD37070BD94F0000F0FD101F0E0
:107C00000046400041EB010111F4801F08BF013C18
:107C1000F7D041EA060195F0000F18BF704703F056
:107C20000046520043EB030313F4801F08BF013DDD
:107C3000F7D043EA0603704794EA0C0F0CEA135599
:107C400018BF95EA0C0F0CD050EA410618BF52EA53
:107C50004306D1D181EA030101F000414FF0000059
:107C600070BD50EA410606BF1046194652EA430667
:107C700019D094EA0C0F02D150EA013613D195EADB
:107C80000C0F05D152EA03361CBF104619460AD123
:107C900081EA030101F0004141F0FE4141F470012D
:107CA0004FF0000070BD41F0FE4141F4780170BD1D
:107CB00070B54FF0FF0C4CF4E06C1CEA11541DBF82
:107CC0001CEA135594EA0C0F95EA0C0F00F0A7F884
:107CD000A4EB050481EA030E52EA03354FEA0131B1
:107CE00000F088804FEA03334FF0805545EA1313C4
:107CF00043EA12634FEA022245EA111545EA10658C
:107D00004FEA00260EF000419D4208BF964244F122
:107D1000FD0404F5407402D25B084FEA3202B61A41
:107D200065EB03055B084FEA32024FF480104FF415
:107D3000002CB6EB020E75EB030E22BFB61A754689
:107D400040EA0C005B084FEA3202B6EB020E75EB1C
:107D5000030E22BFB61A754640EA5C005B084FEA84
:107D60003202B6EB020E75EB030E22BFB61A754651
:107D700040EA9C005B084FEA3202B6EB020E75EB5C
:107D8000030E22BFB61A754640EADC0055EA060E1D
:107D900018D04FEA051545EA16754FEA06164FEA60
:107DA000C30343EA52734FEAC2025FEA1C1CC0D10C
:107DB00011F4801F0BD141EA00014FF000004FF099
:107DC000004CB6E711F4801F04BF01430020B4F15A
:107DD000FD0C88BFBCF5E06F3FF6AFAEB5EB030C12
:107DE00004BFB6EB020C5FEA500C50F1000041EB0F
:107DF000045170BD0EF0004E4EEA113114EB5C04DC
:107E0000C2BFD4EB0C0541EA045170BD41F48011AE
:107E10004FF0000E013C90E645EA060E8DE60CEAB6
:107E2000135594EA0C0F08BF95EA0C0F3FF43BAFD3
:107E300094EA0C0F0AD150EA01347FF434AF95EA8A
:107E40000C0F7FF425AF104619462CE795EA0C0F6E
:107E500006D152EA03353FF4FDAE1046194622E73B
:107E600050EA410618BF52EA43067FF4C5AE50EA15
:107E700041047FF40DAF52EA43057FF4EBAE12E705
:107E80004FF0FF3C06E000BF4FF0010C02E000BFE6
:107E90004FF0010C4DF804CD4FEA410C7FEA6C5CC9
:107EA0004FEA430C18BF7FEA6C5C1BD001B050EA6C
:107EB000410C0CBF52EA430C91EA030F02BF90EA57
:107EC000020F0020704710F1000F91EA030F58BF16
:107ED000994208BF90422CBFD8176FEAE37040F078
:107EE000010070474FEA410C7FEA6C5C02D150EA16
:107EF000013C07D14FEA430C7FEA6C5CD6D152EAD1
:107F0000033CD3D05DF8040B704700BF8446104695
:107F100062468C461946634600E000BF01B5FFF794
:107F2000B7FF002848BF10F1000F01BD4DF808ED64
:107F3000FFF7F4FF0CBF012000205DF808FB00BF35
:107F40004DF808EDFFF7EAFF34BF012000205DF88F
:107F500008FB00BF4DF808EDFFF7E0FF94BF0120DC
:107F600000205DF808FB00BF4DF808EDFFF7CEFFDD
:107F700094BF012000205DF808FB00BF4DF808ED1C
:107F8000FFF7C4FF34BF012000205DF808FB00BFED
:107F90004A0011D212F5001211D20DD56FF4787388
:107FA000B3EB62520ED44FEAC12343F0004343EADD
:107FB000505323FA02F070474FF00000704750EA28
:107FC000013002D14FF0FF3070474FF00000704792
:107FD00053B94AB9002908BF00281CBF4FF0FF3130
:107FE0004FF0FF3000F08CB9ADF1080C6DE904CE14
:107FF00000F024F8DDF804E0DDE9022304B0704766
:10800000D0B50C4B002206460F46FFF727FDFFF7C1
:10801000BFFF0446FFF7A8FC074B0022FFF71EFD39
:1080200002460B4630463946FFF760FBFFF7B0FFCC
:108030002146D0BD0000F03D0000F0412DE9F047A1
:10804000089D04468C46002B40F083808A421746E8
:1080500047D9B2FA82F242B1C2F1200024FA00F00C
:108060009140974040EA010C94404FEA1748230C96
:10807000BCFBF8F61FFA87FE08FB16C143EA014372
:1080800006FB0EF1994209D9FB1806F1FF3080F08A
:108090001981994240F21681023E3B445B1AA4B218
:1080A000B3FBF8F008FB103344EA034400FB0EFE78
:1080B000A64509D93C1900F1FF3380F00581A6459A
:1080C00040F2028102383C4440EA0640A4EB0E0430
:1080D00000261DB1D4400023C5E900433146BDE868
:1080E000F08702B9FFDEB2FA82F2002A50D1CB1B30
:1080F0004FEA174E1FFA87F80126B3FBFEFC210C4E
:108100000EFB1C3341EA034108FB0CF38B4207D9F9
:1081100079180CF1FF3002D28B4200F2E9808446DC
:10812000C91AA3B2B1FBFEF00EFB101143EA0144E1
:1081300008FB00F8A04507D93C1900F1FF3302D233
:10814000A04500F2D9801846A4EB080440EA0C4090
:10815000BFE78B4209D9002D00F0B1800026C5E9A8
:10816000000130463146BDE8F087B3FA83F6002EB1
:108170004AD18B4202D3824200F2B880841A61EB6A
:10818000030101208C46002DA8D0C5E9004CA5E7CD
:10819000C2F1200320FA03F6974001FA02F04FEAF9
:1081A000174ED9403043030CB1FBFEF61FFA87F897
:1081B0000EFB161143EA014306FB08F1994204FA4B
:1081C00002F409D9FB1806F1FF3C80F08D8099423A
:1081D00040F28A80023E3B445B1A81B2B3FBFEF060
:1081E0000EFB103341EA034100FB08F38B4207D931
:1081F000791800F1FF3C73D28B4271D902383944AF
:10820000CB1A40EA064678E7C6F1200C03FA06F4DA
:1082100022FA0CF31C4320FA0CF701FA06F34FEA9A
:10822000144E21FA0CF11F433B0CB1FBFEF91FFA6F
:1082300084F80EFB191143EA014109FB08FA8A454B
:1082400002FA06F200FA06F308D9611809F1FF30C4
:1082500048D28A4546D9A9F102092144A1EB0A0175
:10826000BFB2B1FBFEF00EFB101147EA014700FB65
:1082700008F8B84507D9E71900F1FF312ED2B84503
:108280002CD90238274440EA0940A7EB0807A0FB95
:1082900002894F45C64649461AD317D05DB1B3EBA4
:1082A0000E0267EB010707FA0CFCF2404CEA0202EF
:1082B000F740C5E9002700263146BDE8F0872E4685
:1082C00028460BE70646E9E61846FDE64345E5D2B3
:1082D000B8EB020E69EB04010138DFE70846D2E78C
:1082E00060468DE78146B9E7664675E730464AE75E
:1082F000ACF1020C394413E702383C4424E700BFD8
:10830000704700BF0A22002100F0ECB80A220021C9
:1083100000F0E8B810B5054C13462CB10A460146EA
:108320000220AFF3008010BD2046FCE700000000F3
:108330000A44914200F1FF3300D1704710B511F8A3
:10834000014B03F8014F9142F9D110BD024403469D
:10835000934200D1704703F8011BF9E738B50D4B84
:108360001D68AB6B04467BB91820FDF7D9FD0A4A9E
:108370000A4BA863C0E90023094B83600B23838168
:1083800001220023C0E90423AB6B00221C615A6167
:1083900038BD00BFF4E403200E33CDAB34126DE6DC
:1083A000ECDE050010F8012B11F8013B012A28BF73
:1083B0009A42F7D0D01A7047034613F8012B002ACF
:1083C000FBD1181A0138704710B50139034632B194
:1083D00011F8014F03F8014B013A002CF7D11A4470
:1083E0000021934200D110BD03F8011BF9E7000002
:1083F0002DE9F0473A4E86468C4660461CF8014B04
:10840000A55D15F00805F8D12D2C33D19CF800405E
:108410004FF0010800F1020C002B5CD0102B0CD1A6
:10842000302C0AD19CF8000000F0DF0058284DD114
:108430009CF8014010230CF1020C08F10047013FA9
:108440000026B7FBF3F9304603FB197AA4F1300597
:10845000092D18D82C46A34224DD751C07D0814570
:108460001DD301D1A2451ADB00FB034001261CF8F5
:10847000014BEBE72B2C08BF9CF80040A84608BF37
:1084800000F1020CC8E7A4F14105192D01D8373CD1
:10849000E1E7A4F16105192D04D8573CDBE74FF063
:1084A000FF36E4E7731C06D12223CEF800303846AD
:1084B00042B9BDE8F087B8F1000F00D04042002A71
:1084C000F7D00EB10CF1FF311160F2E73024002B30
:1084D000B3D10823B1E7302CA4D00A23ADE700BF05
:1084E0008E8D0D0013460A46014602480068FFF7CC
:1084F0007FBF00BFF4E4032021400D005D400D006C
:1085000085400D0089400D00000000006465666133
:10851000756C7420004D5342004C5342003C535044
:108520004953657474696E67732064656661756C20
:10853000743E003C53504953657474696E677320F0
:1085400025732575202573204D4F444525753E0024
:10855000257300256900256C6900696E006F7574CC
:108560000070776D00647700617700444953795F4C
:108570003961527351486E7974386D74765A5868FF
:10858000303972542D7464793732520073657475C2
:1085900070537563636573733D2564007677006E71
:1085A0006F2073616D706C65007061726973007427
:1085B0006A54656D7065726174757265006C616294
:1085C0002E74686577636C2E636F6D000000000089
:1085D000000000005D410D00CD400D00CF400D00BA
:1085E000626C6E6B696E660076657200312E302E9D
:1085F0003000682D6265617400343500627566660E
:108600002D696E003130323400646576005061723D
:108610007469636C65006275696C64004A756C20EE
:10862000313520323032312031323A34393A323039
:1086300000000000044D5154540400064D5149738C
:108640006470030079570D0079570D0079570D00BC
:1086500079570D0079570D0079570D0079570D00A6
:1086600079570D0079570D0079570D0079570D0096
:1086700079570D0079570D0079570D0079570D0086
:1086800079570D0079570D0079570D0079570D0076
:1086900079570D0079570D0079570D0079570D0066
:1086A00079570D0079570D0079570D0079570D0056
:1086B00079570D0079570D0079570D0079570D0046
:1086C00079570D0079570D0079570D0079570D0036
:1086D00079570D0079570D0079570D0079570D0026
:1086E00079570D0079570D0079570D0079570D0016
:1086F00079570D0079570D0079570D0079570D0006
:1087000079570D0079570D0079570D0079570D00F5
:1087100079570D0079570D0079570D0079570D00E5
:1087200079570D0079570D0079570D0079570D00D5
:1087300079570D0079570D0079570D0079570D00C5
:1087400079570D0079570D0079570D0079570D00B5
:1087500079570D0079570D0079570D0079570D00A5
:1087600079570D0079570D0079570D0079570D0095
:1087700079570D0079570D0079570D0079570D0085
:1087800079570D0079570D0079570D0079570D0075
:1087900079570D0079570D0079570D0079570D0065
:1087A00079570D0079570D0079570D0079570D0055
:1087B00079570D0079570D0079570D0079570D0045
:1087C00079570D0079570D0079570D0079570D0035
:1087D00079570D0079570D0079570D0079570D0025
:1087E00079570D0079570D0079570D0079570D0015
:1087F00079570D0079570D0079570D0079570D0005
:1088000079570D0079570D0079570D0079570D00F4
:1088100079570D0079570D0079570D0079570D00E4
:1088200079570D0079570D0079570D0079570D00D4
:1088300079570D0079570D0079570D0079570D00C4
:1088400079570D007B570D007B570D007B570D00AE
:108850007B570D007B570D007B570D007B570D009C
:108860007B570D007B570D007B570D007B570D008C
:108870007B570D007B570D007B570D007B570D007C
:108880007B570D007B570D007B570D007B570D006C
:108890007B570D007B570D007B570D007B570D005C
:1088A0007B570D007B570D007B570D007B570D004C
:1088B0007B570D007B570D007B570D007B570D003C
:1088C0007B570D007B570D007B570D007B570D002C
:1088D0007B570D007B570D007B570D007B570D001C
:1088E0007B570D007B570D007B570D007B570D000C
:1088F0007B570D007B570D007B570D007B570D00FC
:108900007B570D007B570D007B570D007B570D00EB
:108910007B570D007B570D007B570D007B570D00DB
:108920007B570D007B570D007B570D007B570D00CB
:108930007B570D007B570D007B570D007B570D00BB
:108940007B570D007B570D007B570D007B570D00AB
:108950007B570D007B570D007B570D007B570D009B
:108960007B570D007B570D007B570D007B570D008B
:108970007B570D007B570D007B570D007B570D007B
:108980007B570D007B570D007B570D007B570D006B
:108990007B570D007B570D007B570D007B570D005B
:1089A0007B570D007B570D007B570D007B570D004B
:1089B0007B570D007B570D007B570D007B570D003B
:1089C0007B570D007B570D007B570D007B570D002B
:1089D0007B570D007B570D007B570D007B570D001B
:1089E0007B570D007B570D007B570D007B570D000B
:1089F0007B570D007B570D007B570D007B570D00FB
:108A00007B570D007B570D007B570D007B570D00EA
:108A10007B570D007B570D007B570D007B570D00DA
:108A20007B570D007B570D007B570D007B570D00CA
:108A30007B570D007B570D007B570D007B570D00BA
:108A40007B570D00646576696365206E6F742066E0
:108A50006F756E6400000000000000000000000060
:108A60000000000000000000BD580D00A9400D00EE
:108A7000A9400D000000000000000000A9570D00F3
:108A8000AB570D00DF580D00E9570D002B580D00B6
:108A9000B9570D00D3570D00000000000000000082
:108AA000EF5F0D00E55F0D00DB5F0D00D15F0D0096
:108AB000C55F0D00B95F0D0091710D0099710D003A
:108AC000AD5F0D00A55F0D009B5F0D00915F0D0078
:108AD000C9710D000008101820283038000000006F
:108AE000000000006170700025592D256D2D256452
:108AF0005425483A254D3A2553257A00617363740D
:108B0000696D6500000000000000000079670D003D
:108B100069670D006B670D00000000000000000099
:108B20009D680D0005690D00DB680D0071640D0086
:108B3000CD680D009F680D00AF680D00FF680D0047
:108B4000BF680D0099680D000000000000000000E3
:108B5000A9690D00156A0D00ED690D0071640D0025
:108B6000BD690D00D9690D00CB690D00E7690D00E5
:108B7000AB690D00AF690D000000000000000000AF
:108B8000A56A0D00EF6A0D00C76A0D00A76A0D0007
:108B9000CF6A0D00D76A0D00DF6A0D00E76A0D008D
:108BA000776972696E670072656376206572726FAD
:108BB00072203D202564000000000000000000003D
:108BC000A36B0D00C56B0D00DF6F0D00D36B0D00A7
:108BD000A56B0D000000000000000000516C0D00AE
:108BE000856C0D00216B0D003B6B0D00756E0D004B
:108BF000E76C0D00B96C0D00656B0D007F6D0D000D
:108C0000E56F0D001B6D0D00296F0D00676B0D00EA
:108C1000996B0D004D6B0D00D76B0D00996C0D001D
:108C2000000000000000000033710D0029710D00EC
:108C30001F710D00E1700D00E5650D0013710D0051
:108C400091710D0099710D0007710D00FF700D00FD
:108C5000F5700D00EB700D00C9710D0000000000F3
:108C60000000000051710D005B710D0065710D0079
:108C70006F710D0079710D0085710D0091710D00FE
:108C800099710D00A1710D00AD710D00B5710D0050
:108C9000BF710D00C9710D0000537431395F5370FD
:108CA0005F6D616B655F7368617265645F74616756
:108CB00000000000F48C0D00998C0D00548D0D0007
:108CC000C88C0D00788D0D004E31305F5F63787871
:108CD000616269763131375F5F636C6173735F74B2
:108CE0007970655F696E666F4500000000000000E6
:108CF000BC8C0D000D750D0021750D00B5760D00B5
:108D0000B5760D008B750D00CD740D0073750D00DB
:108D100035750D0001750D00548D0D00248D0D006D
:108D2000BC8C0D004E31305F5F637878616269768C
:108D30003132305F5F73695F636C6173735F747945
:108D400070655F696E666F450000000000000000FE
:108D5000188D0D00B5750D00C9750D00B5760D00A7
:108D6000B5760D008B750D00CD740D0089760D0064
:108D700015760D00DD750D00F48C0D00808D0D0055
:108D8000537439747970655F696E666F00002020D6
:108D900020202020202020282828282820202020AB
:108DA000202020202020202020202020202088106B
:108DB00010101010101010101010101010100404CB
:108DC00004040404040404041010101010101041D2
:108DD0004141414141010101010101010101010143
:108DE00001010101010101010110101010101042D8
:108DF0004242424242020202020202020202020213
:108E000002020202020202020210101010200000F0
:108E10000000000000000000000000000000000052
:108E20000000000000000000000000000000000042
:108E30000000000000000000000000000000000032
:108E40000000000000000000000000000000000022
:108E50000000000000000000000000000000000012
:108E60000000000000000000000000000000000002
:108E700000000000000000000000000000000000F2
:108E800000000000000000000000000000000000E2
:108E90004D4D0D00F95F0D008D610D0049640D0011
:108EA000F1650D0001660D0029660D003D710D0094
:108EB000A9720D000000000000000000000000008A
:088EC0007CF1FF7F01000000BE
:048EC80000000000A6
:108ECC00FC8A0D00F8E40320000000000000000004
:108EDC000000000000000000000000000000000086
:108EEC000000000000000000000000000000000076
:108EFC000000000000000000000000000000000066
:108F0C000000000000000000000000000000000055
:108F1C000000000000000000000000000000000045
:088F2C0000000000000000003D
:108F3400FFFFFFFF00000102030405060708090AFA
:108F44000B0C0D0E0F101112131415161718191AF5
:088F54001B1C1D1E1F2028003C
:048F5C0078563412FD
:04000003D0004020C9
:00000001FF
